:100000000C94ED020C940A030C940A030C940A035A
:100010000C940A030C940A030C940A030C940A032C
:100020000C940A030C940A030C945F250C941B2572
:100030000C945C260C940A030C940A030C940A0397
:100040000C940A030C940A030C940A030C940A03FC
:100050000C940A030C9438260C940A030C940A039B
:100060000C940A030C940A030C940A030C940A03DC
:100070000C940A030C940A030C940A030C940A03CC
:100080000C940A030C940A030C940A030C940A03BC
:100090000C940A030C940A030C940A030C940A03AC
:1000A0000C940A030C940A030C940A030501090238
:1000B000A10185020901A100050919012905150001
:1000C00025019505750181029501750381010501E1
:1000D000093009311581257F950275088106093897
:1000E0001581257F950175088106050C0A380215D2
:1000F00081257F950175088106C0C005010980A191
:1001000001850319012AB700150126B7009501756D
:10011000108100C0050C0901A101850419012AA064
:1001200002150126A002950175108100C005010984
:1001300006A1018506050719E029E71500250195A7
:1001400008750181020507190029EF1500250195A1
:10015000F0750181020508190129059505750191C0
:1001600002950175039101C00660FF0961A10109B3
:1001700062150026FF0095207508810209631500AD
:1001800026FF00952075089102C005010906A1010E
:10019000050719E029E71500250195087501810279
:1001A0009501750881010507190029FF150026FF33
:1001B0000095067508810005081901290595057542
:1001C000019102950175039101C0FD377A585A00DB
:1001D0000004E6D6B4460200210116000000742F88
:1001E000E5A3E0010E00A75D003D8889C65436C333
:1001F000174FE4E2A2E1CE693C88F3EDFDABE222C9
:1002000055F07121D9F9F61D55E32AC20B8DF6235D
:1002100046EA6663D8DBBB7BF9D8643A2079896803
:100220003C091C8F200B49AC9155AD1133315092D4
:10023000DE5D3286C45508B3A2A8F5094B5C905B1D
:100240004B08F4F99DEAD0A899C0A6082C85F55171
:100250005499A9FF93BA83259F09E4FF061B4B5AC3
:100260001D37CF01C9C557A0B26C379155E28446FE
:10027000445BB027FC93BA8ADE9C93A7D367882E91
:10028000B082F2920E9B5D0C2C4EC745BFC3B71ACD
:10029000000013905E0C48966D5B0001C3018F0255
:1002A000000074E3F7DFB1C467FB02000000000444
:1002B000595A00000000010017000200010006006A
:1002C00002000700030008000400090005000A00FE
:1002D00006000B0007000C0008000D0009000E00CE
:1002E0000A000F000B0010000C0011000D0012009E
:1002F0000E0013000F00140010001500110016006E
:1003000012001700130018001400190015001A003D
:1003100016000001010101010101010102020202B6
:10032000020202020203030303030303030404049F
:100330000404040405050505050606060606070768
:1003400007070708080808090909090A0A0A0B0B20
:100350000B0C0C0C0D0D0D0E0E0E0F0F0F101011BF
:100360001111121213131414151516161717181845
:1003700019191A1A1B1B1C1D1D1E1E1F20202122AD
:1003800022232424252626272829292A2B2C2D2DF3
:100390002E2F30313232333435363738393A3B3C10
:1003A0003D3E3F404142434445464748494A4C4D03
:1003B0004E4F50515354555658595A5B5D5E5F61CC
:1003C0006264656668696B6C6D6F7072737577785F
:1003D0007A7B7D7E8082838587888A8C8E8F9193BD
:1003E0009596989A9C9EA0A2A3A5A7A9ABADAFB1E4
:1003F000B3B5B7BABCBEC0C2C4C6C9CBCDCFD1D4C9
:10040000D6D8DBDDDFE2E4E7E9EBEEF0F3F5F8FA6E
:10041000FDFFA900AA00F900FA00C55CC65C4F0008
:10042000500006011B01160A015019011D013E0072
:1004300003502B08000000000000F400F000F5005D
:100440000250F200F100F3000050F600000000003E
:100450000000C35CC95CCB5C0350C45CCA5CCC5C70
:100460000150C35C0000000000005000C95CCB5C80
:1004700000504F00CA5CCC5C02502B08000000000A
:10048000000009025B00030100A0FA09040000015A
:10049000030101000921110100012240000705812B
:1004A00003080001090401000203000000092111F2
:1004B0000100012222000705820320000107050335
:1004C00003200001090402000103000000092111BA
:1004D00001000122BC000705840320000112010075
:1004E0000200000008EEEE19200001010203011CC9
:1004F000037600690061006C003A00660036003443
:10050000006300320062003300630000000803341F
:10051000007800320000000C034D0061006A0069A1
:10052000006E000000040309040000000000000049
:1005300000000000000000000000000000000000BB
:10054000000000000000000000000000007E0F001E
:10055000D4FFFFFFC700000078000000000000008B
:10056000002A2B280000000000000000000000000E
:100570000000000029000000002C1E34202122244D
:10058000342627252E362D3738271E1F20212223DB
:100590002425263333362E37381F0405060708096D
:1005A0000A0B0C0D0E0F1011121314151617181933
:1005B0001A1B1C1D2F3130232D3504050607080991
:1005C0000A0B0C0D0E0F1011121314151617181913
:1005D0001A1B1C1D2F3130354C0011241FBECFEFCC
:1005E000DAE0DEBFCDBF22E0AEE9B1E001C01D928E
:1005F000A63EB207E1F711E0A0E0B1E0EAEFFFE5C7
:1006000002C005900D92AE39B107D9F70E9483263A
:100610000C94BF2F0C940000E8EDF0E080818E7FF9
:1006200080831092E2001092DA001092E100A0EEB6
:10063000B0E08C9181608C9380818F77808319BC2E
:10064000A7EDB0E08C918E7F8C9380818F7E80832C
:100650001092A90208952091E4003091E50095E6FA
:10066000A9012091EC00822F817020FF06C08091AB
:10067000E80080FF06C080E008952091E80022FD98
:100680001AC08091E502882389F0853089F0809135
:10069000EB0085FD0FC02091E4003091E50042178A
:1006A0005307F9F29150E1F684E0089582E008954D
:1006B00083E0089581E00895EF92FF920F931F93D6
:1006C000CF937C018B010E942B03C82F811117C08F
:1006D0008091E80085FD0BC08091E8008E778093C3
:1006E000E8000E942B03882399F3C82F08C0F70164
:1006F00081917F018093F1000150110949F78C2FFE
:10070000CF911F910F91FF90EF900895CF93FC012F
:100710008091E502843001F5C091E900CF7020910D
:10072000EC00922F917020FD90E8C92B82E080931D
:10073000E9008091E80080FF0CC050E040E060E2FA
:1007400070E0CF010E945C038091E8008E77809377
:10075000E800CF70C093E900CF9108958091CF0257
:1007600087FF13C08091E80082FF06C08091E800F7
:100770008B778093E80004C08091E5028111F2CF6D
:1007800008958091E5028823D9F38091E80080FFE5
:10079000F8CF8091E8008E77ECCF982F9093E90006
:1007A000242F762F50E0891731F07091EC002091C2
:1007B000ED005091F00021FD07C09F5F973071F769
:1007C0008093E90081E008953091EB003E7F309303
:1007D000EB003091ED003D7F3093ED003091EB0068
:1007E00031603093EB007093EC002093ED00509358
:1007F000F0002091EE0027FDE0CF80E00895B0E00A
:10080000A0E0E5E0F4E00C945B2EC8EDD0E0888138
:100810008F7E8883E7EDF0E080818160808384E0D3
:1008200082BF81E08093A90288818E7F888302EE57
:1008300010E0F80110821092DA0081EEC82ED12C5F
:10084000F601108288818F77888388818068888309
:1008500088818F7D888319BC1092E5021092CE02A8
:100860001092CD021092CC0290EEE92EF12CF701FD
:1008700080818B7F808388818160888342E060E013
:1008800080E00E94CD03F60180818E7F8083F80195
:10089000808181608083808188608083F70180818E
:1008A0008E7F8083888180618883CDB7DEB7E8E062
:1008B0000C94772EFC018091D5029091D602861778
:1008C0009707A0F06115710529F49091E8009E77D3
:1008D0009093E80090E06115710551F4911108C002
:1008E0008091E80082FF34C080E00895BC01F2CF1F
:1008F0008091E5028823C1F18530C1F18091E80043
:1009000083FD30C08091E80082FDEACF8091E8004D
:1009100080FFE1CF8091F3002091F200382F611524
:10092000710519F02830310558F091E02830310573
:1009300009F090E02091E8002E772093E800CBCFDB
:1009400081918093F100615071092F5F3F4FE7CF94
:100950008091E502882341F0853041F08091E800E4
:1009600083FFBECF81E0089582E0089583E008957B
:1009700008958091AB02089587E797E79093010867
:100980008093000888E19AE00FB6F894A8958093C8
:1009900060000FBE90936000FFCF9C014FB7F894AA
:1009A0008091A0029091A102A091A202B091A30215
:1009B0004FBF821B930B08952FB7F8946091A0024C
:1009C0007091A1028091A2029091A3022FBF08957D
:1009D0002FB7F8948091A0029091A102A091A20259
:1009E000B091A3022FBF0895209117012223C9F0CF
:1009F0002091A40227FF15C0E62FE695E695E6951F
:100A0000EE31D8F4E80FF92FF11D677021E030E0E6
:100A100001C0220F6A95EAF720958281282322835C
:100A20000895FC01329608962191621303C0DF01FC
:100A300011971C92E817F907B9F70895209117014B
:100A40002223C1F02091A40227FF14C0E62FE695CF
:100A5000E695E695EE31F8F4E80FF92FF11D677091
:100A600021E030E001C0220F6A95EAF78281822BF3
:100A700082830895FC0132962FEF30E04191641794
:100A800051F02F3F19F4411101C0232F3F5F363041
:100A9000A9F72F3F09F40895820F911D27FD9A951C
:100AA000FC016283089520919D0230919E022817D7
:100AB000390771F090939E0280939D02E0919B0212
:100AC000F0919C02309721F00084F185E02D09958A
:100AD00008952091990230919A022817390771F0F0
:100AE00090939A0280939902E0919B02F0919C026C
:100AF000309721F00680F781E02D09950895E09167
:100B00009B02F0919C02309729F00190F081E02D3A
:100B10000995089580E00895FA01811101C0FB0153
:100B200009950895E9E8F2E0818360834283339672
:100B300092E0E539F907C1F70895FC01EE0FFF1FB8
:100B4000E80FF91FE757FD4F618340832283089523
:100B5000EBEDF2E0248130E1231B08F420E0248354
:100B6000809188028160809388020895EBEDF2E025
:100B7000248130E1230F08F42FEF24838091880231
:100B800081608093880208959091DB02937059F000
:100B90008093DC026093DD024093DE028091880244
:100BA000822B809388020895EBEDF2E0438120E1EF
:100BB000421B08F440E0818121E0628190E00E94C4
:100BC000C4050895EBEDF2E0438120E1420F08F403
:100BD0004FEF818121E0628190E00E94C405089579
:100BE000EBEDF2E0628120E1621B08F460E08181BC
:100BF00021E0438190E00E94C4050895EBEDF2E00E
:100C0000628120E1620F08F46FEF818121E043816E
:100C100090E00E94C4050895EBEDF2E0818121E0AF
:100C2000438162818850990B0E94C4050895EBEDC1
:100C3000F2E0818190E021E04381628108960E9488
:100C4000C40508959091DB02937061F081110BC08F
:100C500094609093DB021092120180918802862B9F
:100C6000809388020895883110F09C65F2CF880F38
:100C7000880F982BEECF8091DB0286958695815068
:100C800009F487E161E00E94220608958091DB0269
:100C9000869586958F5F883108F081E061E00E943B
:100CA000220608958091DB02837011F410921201E4
:100CB0008091DB028C7F81608093DB0208950E942B
:100CC00052068091880281608093880208950F9374
:100CD0001F9310E0F801EE0FFF1FEF56FE4F9081BB
:100CE000905797FD9195000F111FF801EB57FE4F9C
:100CF00005850052110B2003F001219FF00D1124F6
:100D000008E310E0091B110997FD139540039001BA
:100D1000419F300D1124E20FF31F9F01220F331F5B
:100D20002E0F3F1F37FF02C021583F4F220F232FA6
:100D3000221F330B620F1F910F9108950F931F9382
:100D4000522F10E0F801EE0FFF1FEB57FE4FA58565
:100D5000A052BB0B9D015203F001539FF00D1124D3
:100D6000000F111FD801AF56BE4F0C910057110B49
:100D700040039001419F300D11242E0F3F1F37FF7C
:100D800002C0215C3F4F96E0359527959A95E1F793
:100D9000620F1F910F9108950F931F93522F10E030
:100DA000F801EE0FFF1FEB57FE4FA585A052BB0BBE
:100DB0009D015203F001539FF00D1124000F111FEC
:100DC000D801AF56BE4F0C910057110B4003900154
:100DD000419F300D11242E0F3F1F37FF02C02158B5
:100DE0003F4F220F232F221F330B620F1F910F91B2
:100DF0000895EF920F93972F23E0029FB0011124E3
:100E0000759567956E0D792F0F91EF900895322F9C
:100E100050E0FA01EE0FFF1FEB57FE4F9585905201
:100E200097FD9195440F551FFA01EF56FE4F208113
:100E3000231B330B290F311D97FD3A95620F08953F
:100E4000E42FF0E0EE0FFF1FEB57FE4F6585621BAE
:100E50000895E42FF0E0EE0FFF1FEF56FE4F608184
:100E6000621B0895622F0895E42FF0E0EE0FFF1F3C
:100E7000EF56FE4F408134EE439F412D1124E82F61
:100E8000F0E050E0445E5F4FDA01A21BB1099D0122
:100E9000B7FF03C031952195310993E0220F331F2D
:100EA0009A95E1F7AF01421B530B9A0157FD20E0E1
:100EB000582F259F212D1124822F0895E42FF0E033
:100EC000EE0FFF1FEF56FE4F408134EE439F412D42
:100ED0001124E72FF0E050E0445E5F4FDA01A21BDF
:100EE000B1099D01B7FF03C031952195310993E008
:100EF000220F331F9A95E1F7AF01421B530B9A0162
:100F000057FD20E0279F212D1124722F08950E9464
:100F1000920508950E949D050895FC019B0100978C
:100F200029F480E077FF2BC080E80895AC0197FF9B
:100F300004C044275527481B590BB901640F751F7E
:100F400037FD10C0241B350BC901A5E0880F991F80
:100F5000AA95E1F70E94302E80E2861BF7FF0FC0B2
:100F600081950895CB0165E0880F991F6A95E1F797
:100F7000BA01621B730B0E94302E80E6EECF0895FB
:100F8000EF920F93CF93DF93D72FC82FC9010E197C
:100F9000BA010E948D07602F681B7D2F8C2FDF9177
:100FA000CF910F91EF9008950F93CF93DF93D72FA9
:100FB000C82FC901BA010E948D07682F600F7D2FCD
:100FC0008C2FDF91CF910F910895EF920F931F9384
:100FD000CF93DF93D62FC72F182FC9010E19010FFA
:100FE000BA010E948D07081B202F219F212D11245B
:100FF000822F6D2F7C2FDF91CF911F910F91EF905A
:101000000895EF920F931F93CF93DF93D62F172F4F
:10101000C82FC9010E19070FBA010E948D07702F42
:10102000781B719F712D11246D2F8C2FDF91CF9123
:101030001F910F91EF9008950F931F93CF93DF931C
:10104000D62FC72F182FC901212F201B022FBA011D
:101050000E948D07982F990F990F891B800F282FB9
:10106000219F212D1124822F6D2F7C2FDF91CF9175
:101070001F910F9108950F931F93CF93DF93D62F56
:10108000172FC82FC901272F201B022FBA010E943A
:101090008D07982F990F990F782F791B700F719FDB
:1010A000712D11246D2F8C2FDF91CF911F910F91F6
:1010B0000895E82F86FDE0952E2F2F7086FD2F5F77
:1010C000E695E695E695E670F0E0E259FE4F9181EF
:1010D000929F902D212D112492959F702295207F13
:1010E000922B2081920F87FD919580E8890F0895BA
:1010F000AC018230910508F408959FEF413E8EE1E6
:10110000580740F49A0195E0369527959A95E1F7AE
:1011100098E0920F61E0E62FE90FFF27FF1F9F0184
:1011200035952795822F229FF001239FF00DF00D1A
:1011300011244E175F0738F49FEF920F961758F758
:101140008FEF860F08952F3FE9F361E0620FF6CF2E
:101150000F93CF93DF93D72FC82F47FD419588E397
:1011600090E0841B910947FD9395889FB001899F6A
:10117000700D700D1124229FC001239F900D900DC2
:101180001124860F971F0E947808982F990F890FB6
:10119000682F600F7D2F8C2FDF91CF910F910895D5
:1011A00030E020E0869F212D969F200D311D1124D7
:1011B000C9010895AF92BF92CF92DF92FF920F9331
:1011C0001F93CF93DF93362F472FE82FF0E0EE5E8B
:1011D000FC4F71110FC0E4918E2F2E2F6E2F722FA6
:1011E000DF91CF911F910F91FF90DF90CF90BF9033
:1011F000AF900895C72FD0E02491F22E022F10E077
:1012000056E0659FC0011124EFEFF0E0BF010E949E
:101210001C2E832F90E0880F991F35E5369FD00153
:10122000379FB00D11248A1B9B0B982F990F980F95
:101230006F01CC1ADD0AC09ED001C19EB00DD09EB8
:10124000B00D11248B2F499FA0011124452F552744
:101250006F01C41AD50AC09EA001C19E500DD09E38
:10126000500D11245F01A91AB108AC9E6001AD9E1A
:10127000D00CBC9ED00C1124CD2CDD24EC19FD0922
:10128000E09FE001E19FD00DF09FD00D1124ED2FE4
:1012900062307105A1F050F46115710509F49ECF1B
:1012A0006130710581F0EB2F852F98CF6430710587
:1012B00069F080F06630710509F490CFF4CFE22F29
:1012C0002B2F8D2F8BCFE22F252F88CFEB2F822F27
:1012D0002D2F84CF2B2F8F2DE52F80CF0F931F9392
:1012E000CF93DF93EC01FC01EB57FE4F8489682319
:1012F000D1F10091DD021091DE024091DC02E42F79
:10130000F0E0609113017091140185E098E0689F0E
:101310009001699F300D789F300D1124275E394C64
:101320003093140120931301CF018C549F4F68E632
:1013300071E00E94302E8E1B9F0B97FD03969595B2
:10134000879595958795230F2370642F289F600DAF
:101350001124702F812F0E94DA08462F282F672F23
:10136000CE010E948A07DF91CF911F910F910895BE
:10137000B0E0A0E0EEEBF9E00C94582E6C01C091C7
:10138000180111E01C0FB12E153010F034E0B32E0F
:101390006091DF02669566958091D7029091D802A0
:1013A0000E94D008F82E80E48F0D0E94590890E822
:1013B000A92EA80E8F2D0E94590820E8922E980E73
:1013C000D0E0CB1548F081E0143008F080E0CDB7D4
:1013D000DEB7EBE00C94742EFE01EB57FE4F8489D0
:1013E000909119018923A1F06091DC027091DD02D6
:1013F0008091DE02EF2C0C2F292D4A2DF601099544
:101400000E94DA08462F282F672FCE010E948A07F4
:101410002196D7CFB0E0A0E0E0E1FAE00C94542EA2
:101420003C01C091180111E01C0FF12E153010F095
:1014300034E0F32E6091DF0266958091D70290919F
:10144000D8020E94D008582ED0E0CE01880F991FF4
:101450009C012B573E4F6901CF1548F081E01430B5
:1014600008F080E0CDB7DEB7EFE00C94702EFE01FF
:10147000EB57FE4F848990911901892379F1F60188
:101480008485282F2057330B59018585E82FE0529A
:10149000FF0B4F01AA9C9001AB9C300D300D112425
:1014A000EE9FC001EF9F900D900D1124820F931FAE
:1014B0000E947808082F6091DC027091DD02809113
:1014C000DE02E52C9401A501F30109950E94DA08DA
:1014D000462F282F672FCE010E948A07F2E0CF0EF9
:1014E000D11C2196B9CFB0E0A0E0E9E7FAE00C9476
:1014F000592E6C01C091180111E01C0FB12E15304E
:1015000010F034E0B32E6091DF0266958091D7022F
:101510009091D8020E94D008A82ED0E0CE01880F6A
:10152000991F9C012B573E4F7901CB1548F081E064
:10153000143008F080E0CDB7DEB7EAE00C94752EE9
:10154000FE01EB57FE4F8489909119018923C1F068
:10155000F70125852052330B44854057550B609188
:10156000DC027091DD028091DE020A2DF601099500
:101570000E94DA08462F282F672FCE010E948A0783
:10158000F2E0EF0EF11C2196D0CFB0E0A0E0EBEC42
:10159000FAE00C945C2E7C01C091180111E01C0F44
:1015A000012F153008F004E06091DF026695669522
:1015B00021E0620F08F46FEF8091D7029091D8027A
:1015C0000E94D008D82ED0E0C01748F081E0143037
:1015D00008F080E0CDB7DEB7E7E00C94782EFE018E
:1015E000EB57FE4F848990911901892391F0609106
:1015F000DC027091DD028091DE022D2D4C2FF7016F
:1016000009950E94DA08462F282F672FCE010E94E5
:101610008A072196D9CF0E94E8049C0190914B0241
:1016200080914C02982B21F030934802209347027E
:1016300090914D0280914E02982B21F030934602FA
:1016400020934502E0919B02F0919C02309749F073
:1016500082E0809349020480F581E02D89E492E0E4
:101660000995089590914B02803F59F480914C0266
:1016700087FF0DC010924C0291110BC010924302D3
:1016800008C0813F81F480914C0218169CF3992385
:1016900081F080914D0290914E02892B09F064C037
:1016A000109242020895823F49F497FFF0CF1092C2
:1016B0004B0280914C028111ECCFE0CF833F19F4B3
:1016C0001916ACF3E4CF20914D02893F29F412168C
:1016D000F4F610924D02DBCF8A3F19F427FFD7CFE3
:1016E000F8CF20914E028B3F29F427FFD0CF1092E4
:1016F0004E02CDCF8C3F19F41216CCF3C8CF843FE5
:1017000031F480914A028E7F80934A02C0CF853F98
:1017100021F480914A028D7FF7CF863F21F480919A
:101720004A028B7FF1CF873F21F480914A02877F65
:10173000EBCF883F21F480914A028F7EE5CF8D3F29
:1017400031F4809144028E7F80934402A0CF8E3F7B
:1017500021F4809144028D7FF7CF8F3F09F097CF1E
:10176000809144028B7FF0CF08958091440280FDE8
:1017700016C081FD16C082FD16C0809142028823EA
:10178000A1F0883280F428E0829FC001112468E231
:1017900070E00E94302E862F672B39F0089582E08A
:1017A000089584E0089588E0089581E00895809187
:1017B000440280FD14C081FD14C082FD16C08091DA
:1017C0004302882381F08E3180F420E5829FC0019E
:1017D00011246EE170E00E94302E862F089584E17E
:1017E000089588E2089588E0089580E50895803F8F
:1017F00031F40E94D70B819580934C020895813F6C
:1018000019F40E94D70BF8CF823F31F40E94D70B16
:10181000819580934B020895833F19F40E94D70B62
:10182000F8CF893F29F40E94B50B80934D020895AB
:101830008A3F21F40E94B50B8195F7CF8B3F31F49D
:101840000E94B50B819580934E0208958C3F19F448
:101850000E94B50BF8CF843F31F480914A02816039
:1018600080934A020895853F21F480914A02826064
:10187000F7CF863F21F480914A028460F1CF873F01
:1018800021F480914A028860EBCF883F21F4809157
:101890004A028061E5CF8D3F31F48091440281603E
:1018A0008093440208958E3F21F480914402826027
:1018B000F7CF8F3FB9F7809144028460F1CF80E089
:1018C0000895F894E82FE295EF70F0E031A1282F09
:1018D0002F7081E090E001C0880F2A95EAF7982FD9
:1018E0009095932391A392A1892B82A37894089534
:1018F0009091A40292FF06C0282F28712830F9F495
:10190000877F846093FF06C0282F28712831F1F467
:10191000877E84612091A50220FF06C0382F387190
:101920003830D9F4877F816021FF06C0282F2871C5
:101930002831D1F4877E816194FD877E0895282F18
:1019400024712430F9F68B7F8860DCCF282F247136
:10195000243101F78B7E8861DDCF382F3171313032
:1019600019F78E7F8860E0CF282F2171213121F770
:101970008E7E8861E1CFCF93DF93EC0182389105B1
:10198000B1F108F040C08133910509F49DC048F5DC
:101990008932910509F48DC08A9709F49CC0C1155C
:1019A00021E5D20708F0C3C0C11530E5D30708F020
:1019B0001EC1C83ED10508F0A3C0C13ED10588F5BF
:1019C000C83AD10508F08EC0C53AD10508F007C164
:1019D000C130D10531F1209721F1C430D10508F58E
:1019E00045C08533910509F45FC0C997C1F6809160
:1019F000A402837009F044C18091A50283FF11C045
:101A0000C9E2D0E00EC0833E910599F170F4803EAA
:101A1000910501F1823E910511F68091A40282FDAB
:101A200021C0CE01DF91CF910895863E910561F1ED
:101A3000873E910571F1843E910509F0B0CF809108
:101A4000A50281FFEECF8091A402C7EED0E084FD15
:101A50000DC0E7CF8091A40280FD33C09091A50214
:101A600090FFDFCFC3EED0E084FFDBCFD0E0C0E05B
:101A7000D8CF8091A40282FD00C19091A50290FD73
:101A8000FFC084FFCECFF2CF8091A40283FDDDCFD3
:101A9000C8CF8091A40283FDF6C09091A50291FF6A
:101AA000F0CFC4EED0E0BDCF8091A40285FFB9CFC6
:101AB000A7CF8091A40285FDE9C08091A50283FF94
:101AC000B0CFC9E3D0E0ADCF8091A40286FFA9CF0B
:101AD000CAE2D0E0A6CF8091A40286FFA2CFC1E3E4
:101AE000D0E09FCFCF3BD10508F6C85AD0E0CC0F4D
:101AF000DD1FC75DDE4F0990D881C02DD46491CF22
:101B0000C11540E2D40758F4C11581E0D80708F0A8
:101B100088CFC03FD10508F4A9CFD06582CFC115C9
:101B200020E4D20708F4A2CFDF70D06A7ACFC115C3
:101B300035E5D30718F5C11544E5D40708F085C08D
:101B4000C11583E5D80708F06CC0C11522E5D2079E
:101B500008F462C0CE018370992721E030E002C012
:101B6000220F331F8A95E2F7C695C69580E2C89F7B
:101B7000E0011124C22BD32BDC6853CFC11539E50A
:101B8000D307A8F4C11548E5D40708F063C0C11510
:101B900086E5D80708F06ACF8C2F0E94780CC82FF2
:101BA000D0E0DC2FCC27CC27DF71D0623ACFC11533
:101BB0002AE5D20708F453C0CE0190568115904211
:101BC00008F054CF8D2F8F710E94780C90E0982FE1
:101BD000882788279F719C012C2BE901E6CFC55AE5
:101BE000D0E0CA5DDE4FC881D0E0D0641ACF2C2F80
:101BF00026952695237040E2249F900111248C2F76
:101C00008370C1E0D0E002C0CC0FDD1F8A95E2F7FF
:101C1000C22BD32BDD6805CFDC2FCC27C16FD06A58
:101C200000CFCE018370992721E030E002C0220F5F
:101C3000331F8A95E2F7C695C69540E2C49FE0013E
:101C40001124C22BD32BDA68ECCEDC2FCC27C46F47
:101C5000D06AE7CEDC2FCC27C06FD06AE2CE8C2FC3
:101C60008F700E94780C34E0D695C7953A95E1F7CD
:101C7000CF709C2FEC01D069D4CEC2EED0E0D1CE93
:101C8000C0EED0E0CECEC6EED0E0CBCEC5E3D0E005
:101C9000C8CE80912A02882331F010922A02109235
:101CA0002902109228020895809590912702982386
:101CB0009093270208951092050210920402109248
:101CC00003020895809102029091D101981301C0FE
:101CD00008958F5F8770FACFA82FA77023E096959D
:101CE00087952A95E1F7FC01EE0FFF1FE80FF91F1A
:101CF000E60FF71F50E040E080E0219130E00A2E2F
:101D000002C0369527950A94E2F721703327042EF6
:101D100001C0220F0A94EAF7822B4F5F5F4F4330D6
:101D2000510559F70895903FB9F0933070F484301D
:101D300098F444E0949F9001112465EC71E0820FC7
:101D4000932F911D0E946C0E08959C5F923020F499
:101D500062EC71E090E0F6CF80E00895262F2770C6
:101D600091E001C0990F2A95EAF723E076956795EF
:101D70002A95E1F7FB01EE0FFF1FE60FF71FE40FB7
:101D8000F51F50E040E0682F70E08191DF0111976E
:101D90009B01042E02C0369527950A94E2F7217024
:101DA00021952827292328272C934F5F5F4F433005
:101DB000510559F70895282F862F903F71F09330E1
:101DC00068F4243050F434E0939FB0011124620F82
:101DD000711D45EC51E00E94AE0E08959C5F92305B
:101DE000E0F7622F70E042EC51E0F5CF982F92952A
:101DF0009F7011F0892F94E0282F2695269511F0D9
:101E00009E5F822F869509F09F5F892F08959C0120
:101E10003A9521153F4150F5FC01EE27F170BC01C8
:101E200066277270AC01442754709C0122273870D9
:101E300094FF0EC080E1EF2B09F480E0672B09F0DE
:101E40008062452B09F08064232B89F08068089517
:101E500081E0EF2B09F480E0672B09F08260452BCD
:101E600009F08460232B19F08860089580E00895BC
:101E70008093A6027093A8026093A7028091E50266
:101E80008430F9F48093E9008FEF9091E80081505D
:101E900095FD06C095ED9A95F1F700008111F5CFFB
:101EA0008091E80085FF0DC050E040E063E070E005
:101EB00086EA92E00E945C038091E8008E7780932E
:101EC000E8000895BC0184E00E94380F0895BC0129
:101ED00083E00E94380F08959C0184E08093E9001C
:101EE0009FEF8091E800915085FD06C085ED8A95B1
:101EF000F1F700009111F5CF8091E80085FF0CC04B
:101F000050E040E066E070E0C9010E945C0380910F
:101F1000E8008E778093E8000895CF93DF93EC017B
:101F2000809117018823B1F18091A40287FF32C00C
:101F300060E284E08093E9008FEF9091E8008150A7
:101F400095FD06C095ED9A95F1F700008111F5CF4A
:101F50008091E80085FF1BC08091170170E050E080
:101F600040E0811104C050E040E068E070E0CE0144
:101F70000E945C038091E8008E778093E80080E205
:101F8000FE01ACEAB2E001900D928A95E1F7DF9193
:101F9000CF91089568E081E0CDCF6E9A3EB13F7B4E
:101FA0002EB120644FB7F89489E892E0FC0151917A
:101FB000CF0168E02EB9000000C057FF3EB9550FB1
:101FC000000000C000C000C03EB900C06A9591F793
:101FD000F2E085399F0751F74FBF8FE594E00197F5
:101FE000F1F700C000000895CF93DF93C7E9D0E078
:101FF00060E0CE010E94382F2196C11584E0D807F9
:10200000B9F7DF91CF9108950F931F93CF93DF938B
:10201000142F022F8430F0F461111CC094E0899FCA
:10202000E0011124C957DF4F82E090E0442311F012
:1020300090E080E0632F8C0F9D1F0E94382F83E07B
:1020400090E0112311F081E090E0602F8C0F9D1F34
:102050000E94382FDF91CF911F910F9108951F9308
:10206000CF93DF93122F8430E0F46330D0F4443008
:10207000C0F498E0699FE001112450E0440F551F1F
:10208000C40FD51F98E1899FC00DD11D1124632F66
:10209000CE0187960E94382F612FCE0188960E942C
:1020A000382FDF91CF911F910895B0E0A0E0EBE5CC
:1020B000F0E10C94542E809015019090160181E06F
:1020C00090E0909316018093150182E1E82E84E060
:1020D000F82E94E1C92E94E0D92E02E214E0712C7E
:1020E000E801612C14C0F50125913491452D662D30
:1020F000872D0E942F1082E0A80EB11C539484E01B
:102100005812F1CF2896639483E0681619F05E01A7
:10211000512CE9CFF7012591349141E060E0872D02
:102120000E940410F6012591349140E060E0872D73
:102130000E94041084E0E80EF11C739484E0C80E41
:10214000D11C085E1F4F84E07812CACF909216010E
:1021500080921501CDB7DEB7EFE00C94702ECF93CF
:10216000C82F6FEF811163ED83E290E00E94382F5A
:102170006FEFC1116DE484E290E00E94382F6FEFA1
:10218000C1116EEA85E290E00E94382FCF91089548
:1021900080E00E94AF1060E086E290E00E94382F5D
:1021A0000E9455100E94F40F81E00E94AF10089524
:1021B000FF920F931F93CF93DF93F42E843040F55B
:1021C000611126C024E0829F8001112409571F4F0E
:1021D00082E090E0442311F090E080E0800F911FB6
:1021E0000E941A2FC82FD0E0DC2FCC2783E090E08C
:1021F000FF2011F081E090E0800F911F0E941A2FC4
:102200009E01282BC901CDB7DEB7E5E00C947A2EEC
:1022100090E080E0F8CF0F931F93CF93DF9384304B
:1022200030F5633020F5443010F528E0629F8001DE
:10223000112450E0440F551F040F151F38E1839FF0
:10224000000D111D1124C80187960E941A2FC82F56
:10225000D0E0DC2FCC27C80188960E941A2F9E015F
:10226000282BC901DF91CF911F910F91089590E024
:1022700080E0F8CF462F672F209197023091980287
:10228000232BF9F4703F39F4403FD9F48091950243
:102290009091960208958430A0F4733028F444306D
:1022A00080F40E940B1108957D3F39F4411109C05B
:1022B00041E060E00E94D81008957C3F11F444236F
:1022C000C1F390E080E00895CF92DF92FF920F93E8
:1022D0001F93CF93DF936C010091E40280912B0256
:1022E000082BC7E0D0E010E0FC2EC8010C2E02C085
:1022F000959587950A94E2F780FD0CC02197A0F789
:10230000F12C8F2DDF91CF911F910F91FF90DF90D6
:10231000CF900895B6018C2F0E943A110E94BB0CF9
:10232000019761F3EECFCF93DF93EC010E9464112C
:10233000BE010E943A110E94BB0CDF91CF9108951B
:10234000FC0183819481892B29F0808191818923EB
:102350008F3F51F480E00895843FE1F717C0883E35
:10236000A8F0813FB9F712C0808191810E9493113A
:1023700092959F70963099F358F4925F9F709230C7
:1023800048F7803F19F040F7883E20F781E0089534
:102390009A5FF4CF83E290E00E941A2F833D89F484
:1023A00084E290E00E941A2F8D3459F485E290E087
:1023B0000E941A2F91E08E3A09F090E0892F8170E7
:1023C000089580E0FCCFCF9384E090E00E941A2F24
:1023D000C82F82E290E00E941A2F982F8C2FCF9165
:1023E00008951F93CF93DF93EC01FC01EB57FE4F51
:1023F00084896823B1F00E94D42E182F0E94D42E15
:102400008F77782F20E8720F08F47FEF612F80918B
:10241000DE020E94DA08462F282F672FCE010E9485
:102420008A07DF91CF911F91089546E050E06CE15B
:1024300070E08BED92E00E94282F109288020895A0
:10244000B0E0A0E0E6E2F2E10C94532EC0907802F6
:10245000D0907902E0907A02F0907B028FB7F894E6
:102460004090A0025090A1026090A2027090A3023E
:102470008FBF530142018C189D08AE08BF080E940F
:10248000DC04609378027093790280937A029093CF
:102490007B02A0914F02EFE4F2E02A2F30E04FEFF1
:1024A000C40ED41EE11CF11CC418D508E608F708B8
:1024B000A3131BC020934F023091DB02132F137024
:1024C00019F0132F1695169520911201213071F1F4
:1024D0002223F1F0223009F433C2233009F43AC246
:1024E000CDB7DEB7E0E10C946F2E418D528D2A01FD
:1024F000712C612CC414D504E604F70420F4215097
:102500003F5F3296D5CF480D591D528F418FF8CF7E
:10251000109218016093D7027093D8028093D90269
:102520009093DA0281E080931201DACF9091110149
:1025300081E019130BC0832F83702091100130E0CC
:1025400091E08217130609F490E0892F817080933F
:102550001A018091E00290911901981739F0809347
:10256000190140E060E080E00E948707183150F4D4
:10257000E12FF0E0EF53F04D0C94442E80911A01BE
:10258000811102C0C0E078C040E060E080E00E94BD
:102590008707F8CFC091180101E00C0FF02E05302D
:1025A00010F034E0F32E6091DC027091DD02809136
:1025B000DE020E94DA08E62ED72EC82ED0E0CF1514
:1025C00028F0C1E0043008F457C0DCCFFE01EB571F
:1025D000FE4F848990911901892331F02C2D4E2DC5
:1025E0006D2DCE010E948A072196E9CFC091180176
:1025F00001E00C0FF02E053010F024E0F22EE090F8
:10260000DC02D091DD02D090DE026091DF0266959F
:10261000669566958091D7029091D8020E94D00865
:102620000E945908805887FD8195880F282F3D2DDD
:10263000239F212D1124822F6E2D7D2F0E94DA08D9
:10264000E62ED72EC82ED0E0CF1508F0BACFFE0167
:10265000EB57FE4F848990911901892331F02C2D7D
:102660004E2D6D2DCE010E948A072196EDCF8EE56D
:1026700097E00E94C50AC82F809118018F5F809350
:102680001801C1113BC182E08093120180911A01AF
:10269000811134C1112309F45BC18091E4020E94CD
:1026A000F60E813009F446C1882309F42BC182302B
:1026B00009F443C1833009F013CF0E945F0610CFA5
:1026C00084E397E0D6CF8BE398E00E94730AD3CFE0
:1026D0008CE198E0FACF81E098E00E940A0ACBCF23
:1026E00085EE97E0FACF82E397E0C3CF89E297E0E7
:1026F000C0CF80E297E0BDCF87E097E0BACF89EF07
:1027000096E0EBCF88EA98E0E0CF84ED97E0DDCF6C
:1027100080EC97E0E2CF8CEC96E00E94B809ABCF5A
:102720008EE996E0FACF87E696E0F7CFC0911801E0
:1027300001E00C0F80911A0181112EC06091DF021F
:1027400020E1620F08F46FEF8091D7029091D802D8
:102750000E94D0086AE070E00E941C2E892B09F0CC
:1027600030CF409113015091140125E038E0429F91
:10277000C001439F900D529F900D1124875E994C8C
:102780009093140180931301890F83706091190154
:1027900090E00E946E0915CF802F053008F084E08C
:1027A000D0E0E82EF12CCE15DF050CF00ACF6091B9
:1027B0001901CE010E946E092196F5CFC0911A0130
:1027C000C1111EC06091DF0220E1620F08F46FEFBB
:1027D0008091D7029091D8020E94D00865E070E005
:1027E0000E941C2E892B09F0CDCE0E94D42E64E0CD
:1027F00070E00E94302E609119010E94F1113CCFCF
:10280000C091180101E00C0F802F053008F084E022
:10281000D0E0E82EF12CCE15DF050CF0D2CE609181
:102820001901CE010E94F1112196F5CFC091180136
:1028300001E00C0FF02E053010F094E0F92ED0904E
:10284000DD02E090DE02D091DC026091DF0266954D
:10285000669566958091D7029091D8020E94D00823
:102860000E945908805887FD8195880F682F2CE0B9
:10287000629F612D11246D0F7D2D8E2D0E94DA082F
:10288000E62ED72EC82ED0E0CF1508F09ACEFE0146
:10289000EB57FE4F848990911901892331F02C2D3B
:1028A0004E2D6D2DCE010E948A072196EDCFC0914D
:1028B0001801FF24F394FC0E0F2D24E02F1508F4CB
:1028C00004E0D0E0C01730F0C1E043E04F1508F05D
:1028D000D3CE58CEFE01EE0FFF1FEC0FFD1FE458C4
:1028E000FD4F6081718182810E94DA08462F282F76
:1028F000672FCE010E948A072196E4CF112309F4A5
:10290000EFCDCBCE0E945F0620E040E060E081E0AA
:1029100090E00E948A0720E040E060E082E090E0E2
:102920000E948A0720E040E060E083E090E00E949F
:102930008A07D6CD0E945F06EECF0E945F06F2CFD7
:1029400010931101832F8370809310010E94CD0F8B
:1029500083E0E9CD8091880281110E941512409197
:10296000D7025091D8026091D9027091DA022FB744
:10297000F8948091A0029091A102A091A202B0913E
:10298000A3022FBF841B950BA60BB70B4097A10585
:10299000B10508F4A5CD10921201A2CDEBEDF2E045
:1029A00081E1808380911B0190911C01A0911D0108
:1029B00081839283A3838FE784838FEF85830E9433
:1029C000151208958091270290912602892B8093F9
:1029D000A00180912A02882329F10E94E804209115
:1029E000280230912902821B930B8838934110F002
:1029F0000E94490E8091A00190912A02892B809318
:102A0000A001809117018823E1F18091A40287FF42
:102A100038C08EE1E2EAF1E090E08150A0F591113A
:102A20000E94490E40E250E066E072E080EA91E0E8
:102A30000E94ED2E892B21F180E2E0EAF1E0A6E090
:102A4000B2E001900D928A95E1F7E0919B02F0913E
:102A50009C023097A9F080911701882359F080914A
:102A6000A40287FF07C08091A0018093A10186E0A6
:102A70008093A0010280F381E02D80EA91E0099526
:102A8000089586E0C7CF2191222339F29F5FC5CFF9
:102A900090E080E00E94690590E080E00E9453058C
:102AA000109226020E94E21486E0E9E4F2E0DF01DF
:102AB0001D928A95E9F710924302109242021092F9
:102AC00044020E940B0B08958093E4020E94481573
:102AD00008958091E402982F9670963021F48860D2
:102AE0000E9464150895877FFBCF21E030E001C08C
:102AF000220F8A95EAF720958091E40282230E94B2
:102B000064150895909105028095892380930502AC
:102B1000282F277091F4282F082E000C330B9217C2
:102B2000130659F09091A50292FF07C085958595EF
:102B300085950E9475150E945B0E0895CF93C091F4
:102B4000A502C2FB992790F9981791F080FBC2F972
:102B5000C093A5026091A40284E090E00E94382F07
:102B60006C2F82E290E00E94382F82E00E94821552
:102B7000CF91089521E030E001C0220F8A95EAF755
:102B80008091E402822B0E9464150895CF93DF9315
:102B9000EC0188818C3F89F489818230A1F08330F7
:102BA000C1F0813051F48DEF89839A8181E001C0B9
:102BB000880F9A95EAF70E946415CE010E94860359
:102BC000DF91CF9108958DEF89838A810E94BA1594
:102BD000F4CF8DEF89838A810E947515EECF909195
:102BE000A50292FF10C098E0899F90011124622BEA
:102BF000609305020E94BA150E94E80490930402B3
:102C00008093030208950E94BA15089580932B02C1
:102C10000E94481508951092270280911701E2EA58
:102C2000F1E0882361F08091A40287FF08C08EE163
:102C3000DF011D928A95E9F70E944815089586E004
:102C4000F7CFAAE2B0E0E7E2F6E10C94602E8FEC59
:102C500092E02091F100DC012D93CD01B2E0873D9F
:102C60009B07B9F78091D002833009F472C0B8F4A1
:102C7000813009F449C0823009F4B3C08091E80082
:102C800083FF96C28091CF029091D0029A3008F0D3
:102C90008FC2E92FF0E0E752F04D0C94442E8A30B9
:102CA00009F48EC08B3009F471C0893039F78091F6
:102CB000CF02813219F78091D3029091D40200970C
:102CC00011F00297D9F68091E800877F8093E800A1
:102CD0008091E80082FF38C09091F3008091F2006B
:102CE000029731F48091F100813011F0863021F4A7
:102CF0008091F1008093AB028091E8008B77809304
:102D0000E8000E94AE03BACF8091CF02813A09F069
:102D1000B5CF8091E800877F8093E8008091D3024F
:102D20009091D402892B61F460E28CEA92E070E029
:102D30000E945A048091E8008B778093E8009ECF30
:102D400060E090E080E0F3CF8091E5028111C0CF98
:102D500095CF8091CF02813A09F090CF8091D30234
:102D60009091D402892B09F089CF8091E800877F68
:102D70008093E8008091E80080FFFCCF80911701EC
:102D80008093F1008091E8008E77B9CF8091CF02D7
:102D9000813209F073CF8091D3029091D402892BB4
:102DA00009F06CCF8091E800877F8093E8000E9453
:102DB000AE038091D102809317010E940B165ECF63
:102DC0008091CF02813209F059CF8091E800877F4E
:102DD0008093E8000E94AE038091D2028093AA0201
:102DE0004DCF8091CF02813A09F048CF8091E80021
:102DF000877F8093E8008091E80080FFFCCF80917E
:102E0000AA02BECF803899F0823809F0D1C18091F2
:102E1000D3028F70873008F0CBC18093E900809196
:102E2000EB0085FB882780F91092E90006C08091AD
:102E3000CC029091CD02911182609091E800977F31
:102E40009093E8008093F1001092F1008091E800E7
:102E50008E77AAC1882309F498C1823009F0A8C1ED
:102E60008091D10281119BC18091D3028F702FEF8D
:102E7000280F263008F09CC18093E9002091EB00D8
:102E800020FF8DC1933031F48091EB0080628093FC
:102E9000EB0085C19091EB0090619093EB0021E0F5
:102EA00030E001C0220F8A95EAF72093EA001092E1
:102EB000EA008091EB008860EACF811179C110911E
:102EC000D1021F778091E3008078812B8093E3000B
:102ED0008091E800877F8093E8000E94AE03809194
:102EE000E80080FFFCCF8091E30080688093E300DE
:102EF00082E0111183E08093E5025AC1805882304C
:102F000008F056C12091D1023091D2022C3DE3E06D
:102F10003E07A1F583E08A838AE289834FB7F8945C
:102F2000DE01139620E03EE051E2E32FF0E0509303
:102F30005700E49120FF03C0E295EF703F5FEF7010
:102F40008E2F90E0EA30C0F0C7968D939D932F5F4F
:102F5000243159F74FBF8091E800877F8093E800C4
:102F60006AE270E0CE0101960E945A048091E80066
:102F70008B778093E8001CC1C096E7CF8091D30285
:102F80009091D402432F55274330510509F44AC08C
:102F900078F54130510509F485C08BE590E0E2E811
:102FA000F4E04230510509F003C12091E800277F89
:102FB0002093E8002091D5023091D6028217930722
:102FC00008F49C0140E02115310509F070C0411161
:102FD0006EC08091E80082FDC9CF8091E502882310
:102FE00029F2853019F28091E80083FFF2CFBECF3D
:102FF0004132510509F447C04232510509F0D8C0A9
:103000008330910508F0D4C0FC01EE0FFF1FE75894
:10301000FE4F0190F081E02D8A589E4FDC018C918B
:1030200090E01DC0332721303105E9F0211531052D
:1030300079F022303105F9F02330310509F0B8C0BC
:10304000EFEEF4E0E4918E2F90E0EFEEF4E007C0B5
:10305000E5E2F5E0E4918E2F90E0E5E2F5E00097FF
:1030600009F4A6C0A2CFE7E1F5E0E4918E2F90E04D
:10307000E7E1F5E0F4CFEDE0F5E0E4918E2F90E0AC
:10308000EDE0F5E0ECCF8330910508F091C0880FBA
:10309000991FFC01E158FE4F0190F081E02D89E07D
:1030A00090E083CF82E190E0EDEDF4E07ECF80917F
:1030B000E502882309F45ACF853009F457CF80916F
:1030C000E80083FD53CF8091E80082FD82CF80919C
:1030D000E80080FF78CF9091F3008091F2002115F5
:1030E000310519F08830910550F041E0089709F05A
:1030F00040E08091E8008E778093E80064CF4491AF
:103100004093F1003196215031090196E8CF803883
:1031100009F04EC08091E800877F8093E80080919D
:10312000CE028093F10092CE811142C01091D10263
:103130001230F0F58091E800877F8093E8001093CB
:10314000CE020E94AE03112311F084E005C08091ED
:10315000E30087FDFACF81E08093E50242E061EC75
:1031600081E00E94CD0342E261EC84E00E94CD0345
:1031700042E261EC82E00E94CD0342E260EC83E037
:103180000E94CD038091E50213C08091D10281306D
:1031900079F481E0933009F080E08093CD021092C1
:1031A000E9008091E800877F8093E8000E94AE03E9
:1031B0008091E80083FF0AC08091E800877F8093B8
:1031C000E8008091EB0080628093EB00AA96E3E038
:1031D0000C947C2E0E940B162FEF84E39CE0215070
:1031E00080409040E1F700C0000088E19AE00FB60F
:1031F000F894A895809360000FBE90936000FFCF75
:10320000882341F08095909126028923809326029D
:103210000E94E2140895882339F090912602982B99
:10322000909326020E94E2140895882321F00E94C0
:10323000540E0E94E2140895882339F090912702D9
:10324000982B909327020E94E2140895882391F10D
:103250009CEF980F913A40F4682F80EA91E00E9429
:10326000F4040E94E214089590E2980F983050F40C
:10327000877091E001C0990F8A95EAF7892F0E9423
:10328000540EEFCF9BE5980F933028F490E080E048
:103290000E946905089598E5980F973128F490E009
:1032A00080E00E9453050895803F20F00E94320B79
:1032B0000E940B0B0895CF93C82F8823D9F18CEF70
:1032C0008C0F813AC8F580911701882311F1809104
:1032D000A40287FF1EC0EC2FE695E695E695F0E088
:1032E000E056FE4F828190E04C2F477021E030E0A5
:1032F00002C0220F331F4A95E2F782239323892BC2
:1033000091F06C2F80EA91E00E94F4040E94E21494
:103310000AC0E2EAF1E088EA91E02191C21789F35C
:103320008E179F07D1F76C2F80EA91E00E941E054F
:103330000E94E214CF91089580E28C0F883068F4E7
:10334000C77021E030E001C0220FCA95EAF78091F2
:103350002702822B80932702EBCFEBE5EC0FE330C3
:1033600040F4F0E0EA5DFE4F808190E00E94690544
:10337000E1CFE8E5EC0FE73150F4F0E0EE0FFF1F8E
:10338000E75DFE4F808191810E945305D3CFC03FFE
:1033900088F28C2F0E94F70B0E940B0BCBCF1F9350
:1033A000CF93DF93182FD0E0C0E0893311F4C0E54C
:1033B000D0E0812F0E945B19209739F4812F0E9461
:1033C0002619DF91CF911F9108958FE99FE0019712
:1033D000F1F700C000002197EFCF0F931F93CF9319
:1033E000DF93C62FD42F022FFC0182818823A9F0FE
:1033F0006093E3020E94E8049093E2028093E1026A
:10340000C77081E001C0880FCA95EAF70E941C19B5
:10341000DF91CF911F910F9108958091E30268137E
:1034200032C08091E1029091E2020E94CD04883C7A
:10343000910548F510E21D0FCD17B9F080E28C0F11
:10344000883040F4C77081E001C0880FCA95EAF760
:103450000E941519183048F481E09D2F977001C023
:10346000880F9A95EAF70E941C19802F0E94CF19A5
:10347000183070F6D77081E001C0880FDA95EAF74E
:103480000E941519C5CFC77081E001C0880FCA9589
:10349000EAF7F6CFB0E0A0E0E0E5FAE10C94592EAF
:1034A000EC018AE0A82E2881222309F48FC0213064
:1034B000C9F599818A81913021F422960E94CF1911
:1034C00005C0923029F422960E945B192196EBCF19
:1034D000933021F422960E942619F8CF943011F0EF
:1034E0002196F4CF229630E020E0AE014F5F5F4F8F
:1034F0008053990B8A30910550F02150310930F3F7
:103500008FE99FE00197F1F700C00000F6CFA29E7F
:10351000B001A39E700D11249C01260F371F8981D5
:10352000EA01E3CFE22FF0E0E75AFA4FB490822F9E
:1035300086958695869590E0FC01E75BFA4FE490CE
:103540002770F12C022E02C0F594E7940A94E2F75A
:1035500031E0E322FF24FC01E75CFA4FC490D12C58
:10356000022E02C0D594C7940A94E2F731E0C32238
:10357000DD24FC01E75DFA4F049110E002C01595CF
:1035800007952A95E2F701701127E114F10419F06B
:1035900081EE0E945B19C114D10419F086EE0E94DD
:1035A0005B198B2D0E94CF19C114D10419F086EE3E
:1035B0000E942619E114F10419F081EE0E942619E7
:1035C0000115110509F482CF8CE278CFCDB7DEB7B3
:1035D000EAE00C94752EA3E0B0E0E1EFFAE10C9480
:1035E0005A2E19821A821B8287E5C82E81E0D82EB6
:1035F00010E000E0EE24E394F12CF60181916F01DC
:103600008F3F09F446C0F894E82FE295EF70F0E0A0
:1036100021A18F70A70102C0440F551F8A95E2F7C0
:10362000CA01922F982B91A392A18095892382A3FE
:10363000789400C0EAE5F1E0B12C31E021912F3F10
:1036400009F46CC0A22FA295AF70B0E090968C9157
:1036500090E02F7002C0959587952A95E2F780FD3E
:103660005DC0832FB82A330F51E0EE35F50731F7EF
:10367000F601319780818F3F11F00E94610C80EA42
:103680008A95F1F7E1E0F0E0EC0FFD1FE00FF11F8C
:10369000B0820F5F1F4F0330110509F0AECF43E03A
:1036A00050E0BE016F5F7F4F8FE292E00E94ED2EEF
:1036B000892BB1F189819A81AB8180932F029093FC
:1036C0003002A093310281E080932E020E94E80430
:1036D00090932D0280932C0280912C0290912D02C8
:1036E0000E94CD04059700F143E050E06FE272E0E4
:1036F0008FE392E00E94ED2E892BD9F080912F026A
:1037000090913002A091310280933F029093400249
:10371000A093410281E010922E0207C080E0A2CF68
:1037200080912E028111D8CF80E02396E9E00C949D
:10373000762E80E0F0CF90E080E00E94222F883E3D
:103740009E4F19F40E94CA11089580E0089568EE12
:103750007EEF90E080E00E94562F60E082E090E0F3
:103760000E94382F60E083E090E00E94382F109292
:103770002B0260E084E090E00E94382F64E082E257
:1037800090E00E94382F60E085E090E00E94382FA2
:1037900060E086E090E00E94382F6FEF87E090E0D5
:1037A0000E94382F40E050E0BA0188E090E00E948B
:1037B0004A2F60E08DE090E00E94382F40E050E01A
:1037C000BA0188E190E00E944A2F60E087E190E032
:1037D0000E94382F40E050E0BA018CE190E00E9456
:1037E0004A2F70E060E080E290E00E94562F40E0B7
:1037F00050E0BA0188E190E00E944A2F80E00E94E8
:10380000AF100E94C81040E050E0BA018FE090E095
:103810000E944A2F40E050E0BA0183E190E00E940C
:103820004A2F0895A5E0B0E0E8E1FCE10C94572EA2
:103830006C01FC0183819481892B31F0808191811D
:1038400089238F3F09F080C52596ECE00C94732EF8
:103850000E946411182F682F89819A810E94DB0EC3
:1038600069817A81812F0E943A118C01F60182814F
:10387000882309F45EC5980122513F452031310566
:1038800008F030C58FEF93E00E941A2F8111A8C075
:103890005EEEF52EF00E07E910E0F11036C0198249
:1038A0001A821B821C8299249A9478012FEFE21AC3
:1038B000F20AC8010E941A2F89831A82882309F408
:1038C0008FC0813009F081C0580132E0A30EB11CD5
:1038D000C7010E941A2FE82E8A83882309F480C02A
:1038E000C5010E941A2FF82E8FEF8E0D8330D8F469
:1038F000580143E0A40EB11CFB82FF2021F0CE0151
:1039000001960E944A1A8501D0CF0115F4E01F07E5
:1039100009F466C0C8010E941A2F811101C0FA94EF
:103920000F5F1F4FBACF8BEF8E0D833040F5C8016C
:103930000396FB825C01FF2031F3580154E0A50E91
:10394000B11C0E941A2F8C838823E9F20B811C8101
:1039500001308FEF180710F0102F002796E0E916BE
:1039600051F0E7E0EE1619F0C8010E94E224C80108
:103970000E94AA24C8CFC8010E94E224C4CFF4E068
:10398000EF12C1CF580124E0A20EB11CC80103966A
:103990000E941A2FFF2021F1882311F18150990BE9
:1039A000989E9001999E300D11244F2D4150550B3A
:1039B000CA01820F931F019708F4A5CFEFE9FFE03A
:1039C0003197F1F700C00000F6CFCE0101960E94BA
:1039D0004A1A570198CF81E00E94BA150E946915D2
:1039E00080910502877009F42FCFF6018281882328
:1039F00009F42ACF8091A50282FF26CF82E00E949F
:103A0000821522CF81E00E947515E8CF82E0E4CFD5
:103A1000053FECE51E0709F461C008F45BC0063FF2
:103A20002CE5120709F45EC0882309F49EC41092A5
:103A3000E30203303DE5130708F05BC00A3F4CE5A5
:103A4000140730F4C80182509C45449708F05CC0CC
:103A50000E94E3119093A5028093A4020231ECE549
:103A60001E0709F45CC108F0A8C009302CE5120754
:103A700009F42FC108F077C005304CE5140709F4AC
:103A80001CC108F05EC003308CE5180709F40DC1B5
:103A900008F00FC18091A40281600230ECE51E079E
:103AA00009F488C06091A4021091A50284E090E01E
:103AB0000E94382F612F82E290E00E94382F0E94EE
:103AC0000B168ECF27E245EE65EE2FC426E241EEBF
:103AD00060EE2BC427E245EE64EE27C426E241EEF9
:103AE00062EE23C427E245EE66EE1FC428E241E001
:103AF000EBCF053A5DE5150709F4AACFE0F40136EE
:103B00009DE5190709F4A4CF0631ECE51E0709F07D
:103B10003AC4809127028A7A91E009F490E0909368
:103B2000C00169E2811165E380EA91E00E941E050F
:103B30000E94E21455CFC8018D5A9D45039720F786
:103B400087CF8091A40280620730FCE51F0791F1C6
:103B50008091A402806108302CE5120758F1809111
:103B6000A402806427C00D303CE5130709F4BFC0F0
:103B700068F48091A4028E7F0B305CE51507D1F0CC
:103B800008F4ADC08091A4028D7F14C00F309CE575
:103B9000190709F4BCC008F4AEC00031FCE51F07EA
:103BA00009F4B9C08091A4028F7B01312CE5120782
:103BB00009F078CF8093A40275CF0F3F3CE513073F
:103BC00009F4B7C0A8F50A3F5CE5150709F479C008
:103BD000C0F404319CE5190709F4B9C008F4A5C084
:103BE0000531FCE51F0709F05DCF8091A40282FB3F
:103BF000992790F921E0922790FB82F990FB83F9B5
:103C0000D9CF0C3F2CE5120709F479C008F45DC048
:103C10000D3F4CE5140709F476C08091A50283603E
:103C20000E3F5CE5150709F03DCF8093A5023ACF22
:103C300001368DE5180709F495C090F40130EDE5E3
:103C40001E0709F48DC008F478C060E002302DE54D
:103C5000120709F027CF8EE090E00E94382F22CF84
:103C60000D3A3DE51307E9F060F49091A402892F25
:103C70008E7F90FF8160053A5DE5150709F49ACFC4
:103C800011CF0E3A8DE5180771F10F3A9DE519072E
:103C900009F008CF9091A502892F877F93FF886054
:103CA000C4CF8091A5028860C0CF8091A4028260B9
:103CB00081CF8091A40284607DCF8091A40288602E
:103CC00079CF8091A5028160B0CF8091A5028260FA
:103CD000ACCF0E940B168091A40280686BCF8091BC
:103CE000A4028C6067CF8091A502877F9ECF8091D0
:103CF000A4028B7F5FCF8091A402877F5BCF8091EE
:103D0000A5028E7F92CF8091A5028D7F8ECF80916C
:103D1000A4028F7E4FCF8091A4028F7D4BCF0E9453
:103D20000B168091A4028F7745CF8091A402837FE8
:103D300041CF8091A5028C7F78CF8091A502982FEA
:103D4000909591708E7F892B90FB81F96ECF0E94A8
:103D50000B169091A402892F97FB87F980582ACFE0
:103D600061E079CF9091A402892F8F7E94FF8061CA
:103D700021CF4BE356E066E476E00E948C0530CE1E
:103D800046E456E06BE376E0F8CF4CE056E067E1BE
:103D900076E0F3CF47E156E06CE076E0EECF40EF1F
:103DA00055E06EEF75E0E9CF4EEF55E060EF75E05E
:103DB000E4CF42EE55E064ED75E0DFCF48EA55E030
:103DC00066EB75E0DACF46EB55E068EA75E0D5CFF3
:103DD00061E081E00E94220603CE61E08AE0FACF32
:103DE0000E940B16FFEF24E33CE0F15020403040EE
:103DF000E1F700C000000E94BC048091A50282FB94
:103E0000882780F991E089270E949E15F60182811A
:103E100000811181882309F445C0C8010E94641102
:103E2000F82E682FC8010E94DB0EB8018F2D0E946A
:103E30003A110E94BB0C8C01882EF601E280B580FD
:103E4000B2943FE0B322809105028770C1F0AE2C9E
:103E5000EE20B1F0812F807F803421F080E2800F4E
:103E6000883068F08091A50282FF09C082E00E943C
:103E70008215809105028770AA24A3948111A12C38
:103E8000912E92942FE09222FBE0F91508F476C06F
:103E9000E92DF0E0ED51F04D0C94442E81E0B4CFCB
:103EA00080E0B2CFC8010E94930EF82EBECF212F22
:103EB0002F70F22E107F19F0F29490EFF922EE207D
:103EC000B9F0FF2069F080E2800F883010F0811097
:103ED00009C080912702F82AF09227020E94E2147A
:103EE000802F4AC080912602F82AF0922602F6CF4F
:103EF000802F0E942619FF2009F440C0005E083080
:103F000010F0811004C08F2D0E94540E06C0F09452
:103F100080912602F822F09226020E94E2142EC01E
:103F2000312F3F70F32E107F103219F0F29480EF92
:103F3000F822882089F041E0841609F491C0EE202F
:103F400009F49AC0BB2009F467C0F601858180FF9F
:103F5000C7CF8F70858360C08091A50282FD35C078
:103F6000EE2069F1FF2039F080912702F82AF092C3
:103F700027020E94E21480E00E945B19292D28503C
:103F8000330B2430310510F40E947F05AA2009F478
:103F90005BCC8091050280FD57CCF601128285959D
:103FA000859585950E94BA15C6010E94121C8091C4
:103FB00005028595859585950E94751545CC80E00F
:103FC0000E942619FF20D1F29ECFEE2049F1B110B8
:103FD00004C080912A028F2920C051E0B51210C080
:103FE00082FFCCCF80912A02F82AF81639F20E947B
:103FF000E8049093290280932802F0922A02BECF0F
:1040000085E0B812E6CF0E94490E9091C1018F2D34
:10401000892B89138093C1018F2D0E941C19AECF6B
:10402000B11003C00E94490E12C091E0B91213C032
:10403000809127028F2109F4A1CF0E94490E90910F
:10404000C1018F2D8095892389138093C1018F2D04
:104050000E94151993CFE5E0BE1609F48FCFE2CF89
:10406000EE2029F0F5E0FB1508F488CFD5CF24E049
:104070002B1508F483CFEBCFBB2049F3F9E38F1264
:1040800009C02FEF37EE43E0215030404040E1F7C8
:1040900000C00000802F0E94261970CF812F8695C6
:1040A0008695837061F0813009F068CFC801937004
:1040B000E11002C090E080E00E9453055FCFC8018C
:1040C0009370E11002C090E080E00E94690556CF35
:1040D000802FEE2029F00E94F70B0E940B0B4ECF91
:1040E0000E94320BFACF812F837089F5E11046CF01
:1040F000402F429546954770440F440F802F8F7094
:10410000042E01C0880F0A94EAF7202F207104FFC3
:1041100007C02FE030E001C0220F4A95EAF7209552
:10412000169516951370123069F050F430912B02E9
:10413000113029F0822B83230E9406161FCF832B78
:10414000822BFACF282B80912B028227F5CF8695E0
:10415000EE2011F0812F8170882309F40FCF402FBA
:10416000429546954770440F440F802F8F70042E60
:1041700001C0880F0A94EAF7202F207104FF07C0BE
:104180002FE030E001C0220F4A95EAF720951695FE
:1041900016951370123069F050F43091E40211302A
:1041A00029F0822B83230E946415E8CE832B822B77
:1041B000FACF282B8091E4028227F5CF1F70EE20E2
:1041C00029F0812F0E94BA15802F27CF802F0E94BF
:1041D0001519812F0E947515D1CE802F52EF8516AB
:1041E000B1F1581570F090EF8916D1F0E1EF8E160D
:1041F00091F0EE2009F466C0B11072CE812F8F715C
:104200002AC0F3EF8F1651F124EF8212F2CF809182
:10421000A50282FD2FC0812F8F71EE20D9F21BC025
:10422000EE2081F034E03B1508F4A8CE1F7181E048
:1042300090E0012E01C0880F0A94EAF79091E40201
:104240008927B1CF45E04B1508F498CEEFCF812FE9
:104250008F71E110BFCF0E94BA1590CE80E0EE20A2
:1042600009F4A1CF1F7181E0012E01C0880F0A94CB
:10427000EAF799CFEE20C9F080910502877084306B
:1042800041F40E945B0E812F8F710E947515A12C45
:1042900075CE54E05B15D8F31F71812F0E94BA15BB
:1042A00063E0812F0E94EF15F2CF84E08B1530F48C
:1042B0000E945B0E64E0812F8F71F4CF81E00E9439
:1042C0008215E5CFBB2059F0893309F0E3CE9FEF8B
:1042D000E7EEF3E09150E040F040E1F7D9CE812FD6
:1042E0008F7178CF0031FFE51F0709F474CB0131DE
:1042F0002FE5120709F48ACB033F2CE5120709F4D6
:10430000E5CB08F085CB083D4CE5140709F4DACB82
:10431000093D5CE5150709F4E9CB073D9CE5190764
:1043200009F082CB26E241EE61EEC6010E94ED1952
:1043300057CB00313FE5130709F464CB01314FE55A
:104340001407D1F682E05FCB85E0DE011196019083
:104350000D928A95E1F7F601228189819A812111D6
:1043600077CA0E94930E182F7BCA0631FCE51F07FF
:1043700041F58091C00169E2811165E380EA91E035
:104380000E94F404D5CB0A352DE5120709F486CD39
:1043900068F401154CE5140709F422CD0E3D1C45C7
:1043A00009F034CD0E94A71B0E94EA180C358DE558
:1043B000180709F422CD08F473CD073A1D45A1F37F
:1043C00025CD8091270282720A3CFCE51F0709F483
:1043D000F0CCB0F5053C3CE5130709F4D6CCD0F49D
:1043E000033C5CE5150709F4C4CC08F0C9CC023CD9
:1043F000ECE51E0709F00ACD8091DB0291E08927E8
:104400008093DB0210921201809188028160809378
:104410008802E6CA073CFCE51F0709F4C0CC08F493
:10442000B9CC083C3CE5130709F4BECC093C4CE58B
:10443000140709F0EBCC44ED55E062EE75E09DCC3D
:104440000F3C5CE5150709F4C8CCA0F40C3CECE586
:104450001E0709F4B8CC08F4B1CC0D3C2CE51207CA
:1044600009F4B6CC61E082E00E3C3CE5130709F4A8
:10447000B1CCCCCC063D4CE5140740F461E08FE0B4
:10448000013D5CE5150708F4A5CCAACA0D35100757
:1044900009F4A6CABBCC1F93CF93DF938091D001C0
:1044A000807F09F049C08091CD01882309F444C080
:1044B00080910202D091D1016091CB017091CC0129
:1044C000A091CE01B091CF01C62FC72316E0D81717
:1044D00099F190E0109711F0CF3F19F40196877091
:1044E000F6CF189F9001199F300D1124F901EE525B
:1044F000FE4F41814713F2CF40814613EFCF4281F7
:104500004111ECCF438154814A1B5B0B483C510560
:1045100028F78091D0018F7080618093D001F901DC
:10452000E952FE4F80818F70806180838BEC91E037
:104530000E94121C0E94620EDF91CF911F9108957C
:10454000A1E1B0E0E6EAF2E20C94592E8C0185E09C
:10455000F801DE011D9601900D928A95E1F7F801B0
:10456000E2808BECA82E81E0B82E6091CE01709194
:10457000CF016115710509F426C19091CB014091DD
:10458000CC01892F84238F3F09F41DC12081318103
:10459000C380D480F090CD01F601E61BF70BFF201D
:1045A00009F4DCC08091D001582F507FE83CF10520
:1045B00008F09FC051116BC0FE2C431314C092131E
:1045C00012C0E11010C08F7080618093D001C501CE
:1045D0000E94121C8091D001F80185838F2D619675
:1045E000EAE00C94752EC114D10429F0822F8323A4
:1045F0008F3F09F003C180E0F82FF170DF2E80FFBC
:104600003CC0809102024091D10156E0841315C054
:104610002D873E878D859E850E949311292F229597
:104620002F702230F0F0243018F59F70F1F0F8016F
:104630009581907FD1F4D12C1EC090E0589FF0015D
:10464000599FF00D1124EE52FE4F6181361306C0C2
:104650006081261303C06281E6120FC00196877045
:10466000D5CF9F7011F0882331F3805E883018F326
:10467000C8010E94121CFD2CB1CFEE2009F4AECF70
:104680008091D00181608093D001F12CA7CF43139A
:1046900006C0921304C0F801EE2009F479C0C801E5
:1046A0000E94A011882309F1EE20F9F08091D00139
:1046B000803270F02091CB013091CC0138872F836C
:1046C0001986DB86CA868C87CE0107960E94121C4B
:1046D00086E0F801ABECB1E001900D928A95E1F72C
:1046E0000E944B22FF24F39479CFC8010E94121C30
:1046F000F9CF51110AC08BEC91E00E94121C86E0A8
:10470000F50111928A95E9F7C0CF43130FC09213B8
:104710000DC0E1100BC0F8018583C8010E94121C76
:1047200086E0F50111928A95E9F758CFC8010E94F9
:10473000A0118823D1F2EE20C1F28091D001803205
:1047400038F22091CB013091CC013A8329831B822E
:10475000DD82CC828E83CE010196B8CFE83CF10594
:10476000F8F6FE2CEE2009F243131FC092131DC071
:104770008091D00180FD10C0982F907F69F0F801E2
:104780008583903F31F0982F907F905F8F70892BB9
:104790008583C8010E94121C86E0F801ABECB1E0F1
:1047A00001900D928A95E1F719CFC8010E94A011DE
:1047B00081118ECF8091D00181608093D001C8019A
:1047C0000E94121C0BCFEE2009F48FCFC8010E946B
:1047D000A011F82E882309F488CF86E0F801ABEC0D
:1047E000B1E001900D928A95E1F78091CB01909113
:1047F000CC010E9493110E944B22F0CE81E08E25C5
:10480000FBCEA7E1B0E0E7E0F4E20C94602E4B8B26
:104810005C8B6D8B7E8B8F8B6111109226021A8AB6
:10482000198A85E0FE017396DE011D9601900D92B6
:104830008A95E1F78091A50282FF1CC00E94E804DE
:104840002091030230910402821B930B883893411C
:1048500020F08091050282FF79C00E94E804209137
:10486000280230912902821B930B8838934110F063
:104870000E94490E86E0FE013D96DE0117960190EA
:104880000D928A95E1F7CE0107960E94A022882317
:1048900059F016E0809102029091D101891343C032
:1048A0006796E3E00C947C2E86E0FE013796DE01ED
:1048B000119601900D928A95E1F78A859B85892B47
:1048C00041F38F81988589238F3F19F32091D1017E
:1048D00030E0C9010196877099274091020248177C
:1048E000190671F40E940B161092D1011092020267
:1048F00086E0EBECF1E0DF011D928A95E9F7C9CF84
:1049000096E0929FD001939FB00D1124AE52BE4FFE
:10491000FE01319601900D929A95E1F78093D101B5
:104920000E94620EB6CF819FC00111248E529E4F0D
:104930000E94A022882309F4B3CF8091020290E064
:1049400001968770992780930202A4CF82E00E948B
:10495000821583CFA5E0B0E0E0EBF4E20C945F2E8B
:104960008C019093960280939502011580E21807BE
:10497000C0F4802F0E942619C8010E94070F9801D9
:10498000205E31092830310518F00115110531F488
:104990000E9415192596E4E00C947B2E0E940019C4
:1049A000F9CF80EF89838A831B820E94E8048160AB
:1049B000782F9D838C8349815A816B818D810E94E0
:1049C0000124E8CFA5E0B0E0E8EEF4E20C945F2E1D
:1049D0008C019093960280939502011580E218074E
:1049E000C0F4C8010E94070F9801205E31092830E9
:1049F000310518F00115110549F40E941C19802F8A
:104A00000E945B192596E4E00C947B2E0E940B1902
:104A1000F6CF80EF89838A8381E08B830E94E8044C
:104A20008160782F9D838C8349815A816B818D8130
:104A30000E940124E7CF1F920F920FB60F9211240C
:104A40002F933F934F935F936F937F938F939F9396
:104A5000AF93BF93CF93DF93EF93FF93D091E90090
:104A6000DF708091EC00C82FC17080FDC0E810920B
:104A7000E9008091F000877F8093F00078940E9495
:104A800021161092E9008091F00088608093F00078
:104A9000CD2BCF70C093E900FF91EF91DF91CF91C3
:104AA000BF91AF919F918F917F916F915F914F9146
:104AB0003F912F910F900FBE0F901F9018951F924E
:104AC0000F920FB60F9211242F933F934F935F9342
:104AD0006F937F938F939F93AF93BF93EF93FF93C6
:104AE0008091E10082FF09C08091E20082FF05C051
:104AF0008091E1008B7F8093E1008091DA0080FF5C
:104B000024C08091D80080FF20C08091DA008E7F81
:104B10008093DA008091D90080FF9DC080E189BD3B
:104B200082E189BD09B400FEFDCF81E08093E502FA
:104B30008091A902811109C00E940C030E94FF0309
:104B40008091E20084608093E2008091E10080FF28
:104B500017C08091E20080FF13C08091E2008E7F39
:104B60008093E2008091E20080618093E200809176
:104B7000D80080628093D80019BC85E08093E5025C
:104B80008091E10084FF2BC08091E20084FF27C068
:104B900080E189BD82E189BD89B5982F917080FF40
:104BA000FBCF8091D8008F7D8093D8008091E10069
:104BB0008F7E8093E1008091E2008F7E8093E200FF
:104BC0008091E20081608093E2008091CE02882390
:104BD00009F447C084E08093E5028091E50280916A
:104BE000E10083FF27C08091E20083FF23C0809112
:104BF000E100877F8093E10082E08093E5021092DC
:104C0000CE028091E1008E7F8093E1008091E200EE
:104C10008E7F8093E2008091E20080618093E200C9
:104C200042E060E080E00E94CD038091F000886067
:104C30008093F000FF91EF91BF91AF919F918F9181
:104C40007F916F915F914F913F912F910F900FBE88
:104C50000F901F90189519BC1092E5021092A902AE
:104C600074CF8091E30087FD93E09093E502B5CF88
:104C700078941F921FB61F9211248F939F93AF9326
:104C8000BF938091A0029091A102A091A202B09145
:104C9000A3020196A11DB11D8093A0029093A102D1
:104CA000A093A202B093A302BF91AF919F918F9165
:104CB0001F901FBE1F9018951F921FB61F921124A0
:104CC0008F939F93AF93BF9380919F02811113C0E5
:104CD0008091A0029091A102A091A202B091A302A2
:104CE0004196A11DB11D8093A0029093A102A093B3
:104CF000A202B093A302BF91AF919F918F911F9099
:104D00001FBE1F901895CDB7DEB7C854D1090FB696
:104D1000F894DEBF0FBECDBF85B7806885BF85B76D
:104D2000806885BF84B7877F84BF0FB6F894A89545
:104D300080916000886180936000109260000FBED7
:104D400080E890E00FB6F894809361009093610042
:104D50000FBE8FE59CE090939F0180939E010E947F
:104D60000C030E94FF038091E20084608093E200C4
:104D700078948091E5028823A1F01091E9001F70DA
:104D80009091EC00892F817090FD80E8182B109293
:104D9000E9008091E80083FD0E9421161F701093A6
:104DA000E90082E084BD93E095BD9AEF97BD8093C2
:104DB0006E000E94CA11811102C00E94C81085EFC6
:104DC0000E94610C86EF0E94610C84EF0E94610CCE
:104DD00087EF0E94610C81E30E94610C83E30E94D3
:104DE000610C82E30E94610C83E0EFE3F2E0DF01FB
:104DF000282F1D922A95E9F7EFE2F2E0DF011D92DC
:104E00008A95E9F70E949B1B811102C00E94A71B93
:104E100082E090E00E941A2F809334020E94E311F6
:104E20009093A5028093A4020E94EB1AEFE3FCE9A1
:104E30003197F1F700C000000E94EB1A80913F0209
:104E400080FF08C06FEF7FEF90E080E00E94562F58
:104E50000E94BC0483E090E00E941A2F0E94061674
:104E600010924F028FEF9FEF909369028093680238
:104E700090936B0280936A0290936D0280936C0210
:104E800090936F0280936E029093710280937002F0
:104E900090937302809372029093750280937402D0
:104EA00090937702809376020E949B1B811104C02D
:104EB0000E94A71B0E94CE1446E050E06CE170E017
:104EC0008BED92E00E940A2F109288028091DB0203
:104ED0008C7F11F40E94CE1481E080933A023E98B8
:104EE000469A54985C9A8FE891E00197F1F700C0D8
:104EF000000020913A024BE352E0FA018E2F841B0E
:104F0000821708F470C184E091E090939C02809332
:104F10009B028091E50210E400E162E1F62E85300B
:104F200009F4BAC10E94EB1A9091350280913F02B8
:104F30009813BCC190913602809140029813B6C17B
:104F400090913702809141029813B0C10E94E80409
:104F50008C01809132029091330208171907C1F039
:104F60008FEF8DAF8EAF1FAE0E94E8048160782F67
:104F700022969FAF8EAF22974DAD5EAD6FAD22965C
:104F80008FAD22970E9401241093330200933202C6
:104F90000E94201210E000E07DEFB72EAA24A39417
:104FA000ECEF9E2E80913A02181708F452C20111BC
:104FB0000E94DC0486E0E9E4F2E08E010F5F1F4FFF
:104FC000D80101900D928A95E1F710924B02109250
:104FD0004C0210924D0210924E028B819C81892BC3
:104FE00009F44AC080914702909148020E94CD0482
:104FF0009C0190914302992309F419C6253131058A
:10500000D8F19F3F19F09F5F90934302FB80FF20F0
:1050100059F00E94D70B9FEF1F140CF491E0899F69
:10502000802D112480934B02FC80FF2059F00E94B8
:10503000D70B9FEF1F140CF491E0899F802D112452
:1050400080934C0230914B023323B1F020914C02FB
:10505000222391F045EB3403C0011124992309F474
:1050600096C290934B0255EB2503900111243323F4
:1050700009F491C230934C028D819E81892B09F4F1
:105080004AC080914502909146020E94CD049C0145
:1050900090914202992309F4C5C521353105D8F113
:1050A0009F3F19F09F5F90934202FD80FF2059F0CF
:1050B0000E94B50B9FEF1F140CF491E0899F802D87
:1050C000112480934D02FE80FF2059F00E94B50B01
:1050D0009FEF1F140CF491E0899F802D1124809381
:1050E0004E0230914D023323B1F020914E02222323
:1050F00091F045EB3403C0011124992309F44FC208
:1051000090934D0255EB250390011124332309F4AC
:105110004AC230934E0246E050E0B80189E492E082
:105120000E94ED2E892B61F480914B0290914C02EC
:10513000892B90914D02892B90914E02892B11F071
:105140000E940B0B86E0F801A9E4B2E001900D92F9
:105150008A95E1F70E947F0590913C02891721F022
:1051600080933C020E94DC048091E502843009F0C7
:10517000D0CE83E08093E9008091E80082FFC9CE21
:105180008091E80090E085FF0AC00E942B0360E256
:10519000C62ED12C7801882309F413C291E08091A6
:1051A000E8008B778093E800992309F4B2CEE09071
:1051B0009702F09098028981E114F10409F40FC27A
:1051C0008E3F09F0C7C28A81833020F0855083303A
:1051D00008F0C0C2EA81EE3008F0BCC2F0E0E15154
:1051E000F04D0C94442E86B186FB882780F94C99AB
:1051F00004C090E0892B819381CE92E0FBCF809117
:10520000E502843029F10E94201210929F02A8E149
:10521000B0E00FB6F894A895A09360000FBE10936D
:10522000600083B7817F846083BF83B7816083BF61
:105230007894889583B78E7F83BF0FB6F894A8952E
:1052400080916000886180936000109260000FBEC2
:105250008091CD02882301F10E94EB1A80913F02D8
:1052600090914002892B90914102892BA9F009BDB0
:10527000F9BC09B400FEFDCF8091D8008F7D8093EA
:10528000D8008091E00082608093E0008091E0008F
:1052900081FDFCCF0E940B168091E502853009F458
:1052A000AECF0E940B160E947F053CCE3FE3632EDB
:1052B00032E0732E45E3842E42E0942E55E8A52E6D
:1052C00051E0B52E412CF30131903F01D4018D9175
:1052D0004D01831509F4B3C0832529968FAF299713
:1052E000F12CE12C2224239429968FAD2997822139
:1052F00009F499C0522C53202396EFAE239724969D
:105300004FAE249781E0511001C080E025968FAF09
:1053100025970E94E8048160782F27969FAF8EAF73
:10532000279723964FAD239724965FAD2497259614
:105330006FAD259727968FAD27970E9401245520A2
:1053400061F0F501EE0DFF1D8081512C8F3F29F09A
:1053500028968FAF289755245394052D10E08091FF
:105360004F02800F912F911D09976CF188E0C82E94
:10537000D12CC01AD10AB801605B7D4FA60180E52F
:1053800092E00E94FA2EB801685A7D4FA60188E586
:1053900092E00E94FA2EA601440F551FB801660F35
:1053A000771F68597D4F88E692E00E94FA2EB80177
:1053B000605A7D4FA60180E692E00E94FA2E88E0B6
:1053C000851980934F0280914F0290E02896EFADAF
:1053D0002897AE2FB0E09D01220F331F2F563E4F6E
:1053E000AA0FBB1FBD016E567E4F17C090E0FC0197
:1053F000E15BFD4FD9015C915183DB015C915187E9
:105400002896BFAD2897B18B880F991FFC01E15BEF
:10541000FD4F128E118E91E0842F41E0480F9515BB
:1054200028F380934F02220CFFEFEF1AFF0A24E0CB
:10543000E216F10409F058CFF40131973082439419
:1054400034E0A30EB11C43E044123DCF0E94DC04C3
:105450009FCDE12EF12C86B186FB882780F94C99EF
:1054600092C090E0982BF701E55CFD4F8081282FDA
:105470002370921709F485C0880F880F892B8083C9
:10548000E82FEF70F0E0E25AFE4FD701A75CBD4F66
:105490006D0190812C91920F9C9323E0290F27306E
:1054A00020F48370833009F070C080E019168CF509
:1054B000F701E85CFD4F80818F5F80830E94E804E4
:1054C0001BAB9CAAADAA8160782F9FAB8EAB412FFE
:1054D0005CEF61E08FA90E940124EFE3FFE13197C7
:1054E000F1F700C000000E94E80418AF99AE1AAEB0
:1054F0008160782F9CAF8BAF412F5CEF60E08CAD6B
:105500000E9401248FE39FE10197F1F700C00000A2
:1055100081E0D6019C9197FF31C0F701E85CFD4F17
:105520008081815080830E94E80419A7BAA6ABA6A7
:105530008160782F9DA78CA7412F5DEF61E08DA53D
:105540000E940124EFE3FFE13197F1F700C0000072
:105550000E94E8041EA7BFA618AA8160782F9AAB04
:1055600089AB412F5DEF60E08AA90E9401248FE39F
:105570009FE10197F1F700C0000081E0D6011C9285
:10558000082B1F5F0FCD92E06DCF80E0F9CF81E057
:1055900080934B0268CD81E080934C026DCD81E019
:1055A00080934D02AFCD81E080934E02B4CD8091C7
:1055B000F100D7018D937D01B1E0CB1AD10809F438
:1055C000EDCD8091E80085FDF2CF8091E8008B77EA
:1055D0008093E8000E942B03882399F3DFCD893064
:1055E00009F4C8C108F054C0843009F4D6C060F48E
:1055F000823009F49EC008F0C1C0813009F495C022
:10560000C8010E94C615A6C0863009F4DCC008F4A3
:10561000CFC0873009F4DAC0883091F78A818234AC
:1056200009F475C108F03EC1803409F46BC18134BE
:1056300009F090C08091DB02982F9370C1F086959D
:10564000869590E022EB32E042E153E0F901329698
:1056500065917491F901A591B491FA2FEB2F8617FA
:10566000970739F02C5F3F4F4217530779F7F0E067
:10567000E0E0FB83EC838091DF028D838091DC028C
:105680008E838091DD028F838091DE02888762C0E5
:10569000803109F4A0C1E8F58D3009F46EC130F411
:1056A0008C3009F0ADCF80E18A8354C08E3009F48C
:1056B00068C18F3009F0A4CF809115019091160137
:1056C000892B09F447C0CC80D12C3DE1C316D1040D
:1056D00008F040C0EA80FB80FE24EF24FE2458013D
:1056E000CE0CDF1CC70189569F4FEC14FD0491F1CD
:1056F00049E6E41643E0F40628F4D50114966C91CB
:105700000E94382FBFEFAB1ABB0AEFEFEE1AFE0A6A
:10571000E9CF823109F464C108F460C1833109F42E
:1057200087C18E3F09F06CCF55CD1A8289E08B83FB
:1057300011C08A81823009F46CC2833079F08130E3
:1057400009F05ECF0E94DC040E944A2E6B837C83AA
:105750008D839E83C8010E948603DBCB8091150157
:1057600090911601892BB1F380913F028B83809138
:1057700040028C83809141028D83ECCF8A818230FC
:1057800009F03ECF6B817C818D819E810E944A2EE3
:1057900086E290E00E94382FDDCF4C816B818A81B8
:1057A0000E940B119827892798279E838D83D2CF3B
:1057B0002D813E813227232732274C816B818A81BC
:1057C0000E942F10C7CF0E945510C4CF8A81813408
:1057D000A9F1823409F0BECF8D81F3E08F9F900153
:1057E00011242E3131050CF0B5CF2B813C81D8012D
:1057F000F901EE0FFF1FE20FF31FE458FD4F50E0D9
:1058000040E090E04817590708F0A4CF1396B9017B
:10581000640F751F6430710508F09CCF12966C916F
:105820001297608313966C911397618314966C9111
:10583000149762834F5F5F4F3396E4CFEB80FC8019
:10584000E114F104B1F48091DB02837011F0109245
:1058500012018091DB028C7F8093DB028D8180932B
:10586000DF028E8120E048856F8190E00E94C405B0
:1058700071CF0E94520622EB32E0F90132968591F7
:105880009491F90145915491E416F50639F02C5F95
:105890003F4FE3E022313E0781F780E060E00E9465
:1058A0002206DCCF833409F453C0843409F052CF8C
:1058B0008B8190E08430910508F04CCFFC01EE0F15
:1058C000FF1FEF56FE4F20812B83FC01EE0FFF1FC1
:1058D000EB57FE4F25852C83FC01EB57FE4F2489A7
:1058E0002D832FEF2F832E8365E871E050E040E099
:1058F000FB0130E020E0A191A817190669F54E835D
:105900002F8328CF81E08B831C828FEF35CFEB80F4
:10591000FC804EE150E06FEF70E0CE0103960E94F4
:10592000032F82EB92E042E153E0DE0113966EE139
:10593000FC0125913491E216F30628F4623018F048
:105940002D933D93625004964817590789F702CF6B
:1059500084E08B831C82FECE2F5F3F4F24303105C5
:1059600051F64F5F5F4F6C5F7F4F4330510509F039
:10597000BFCFF0CE0E941512EDCE83E08A8389E678
:10598000D6CEEC80F12C2DE1E216F10408F0E2CE47
:10599000CA80DB80DC24CD24DC245801E00EF11E1B
:1059A000C60189569F4FEA14FB0409F4D3CE39E6A9
:1059B000C31633E0D30660F40E941A2FD501149663
:1059C0008C93FFEFCF1ADF0A2FEFA21AB20AE8CFAB
:1059D000F5011482F6CF0E94F40FBCCE84E064CEB1
:1059E000EC80F12CFDE1EF16F10408F0B3CECA8093
:1059F000DB80DC24CD24DC245801E00EF11EC6013E
:105A00008796EA14FB0409F4A5CE20E6C216D10459
:105A100060F40E941A2FD50114968C93FFEFCF1AD1
:105A2000DF0A2FEFA21AB20AEACFF5011482F6CFED
:105A3000CC80D12C3DE1C316D10408F08BCEEA8096
:105A4000FB80FE24EF24FE2440E6E416F10408F077
:105A500081CE80E690E08E199F098C159D0508F493
:105A600079CE5801CE0CDF1CC7018796EC14FD04DB
:105A700009F470CE50E6E516F10428F4D501149629
:105A80006C910E94382FBFEFAB1ABB0AEFEFEE1AF2
:105A9000FE0AEACF88E0EEE1F1E0DE0191960190A6
:105AA0000D928A95E1F780E2D8011D928A95E9F777
:105AB00085E0898388E0FE01B196DE0115960190AC
:105AC0000D928A95E1F781E08D8744CE88EE898337
:105AD0001A821B823FCF8C81682F70E0762F662759
